:0300000002006695
:0600060075334102000306
:03000300020057A1
:20000C007401B5310512013280F6853330753101E53304F533E53324A550E575334180E087
:20002C00758920758DFA759850D28ED299E531700512013280F720990512013280F88530FB
:20004C0099753100753020C29980E275310075302090000C12009102002C02006D22222226
:01006C002271
:20006D00753900753A00753800900057120091858238E5382434F98781D0D0D083D082D015
:20008D00F0D0E02274FC253950047582FF22753C00753D00753B0074FC253B4039853BF04B
:2000AD0005F0E53A8002C313D5F0FB20E021853BF005F07401800225E0D5F0FB423AE539EB
:2000CD0004F539E53BC454F0FF243FF53C8007E53B04F53B80C1C0E0C0F0C082C083C0D0A5
:2000ED00E5382434F8A68185813D853C81C082C0837400C0E0C0F0C082C083E53BFFC40326
:20010D0054F8F5D0C0D0E53B2434F8A681853D81E5382434F98781D0D0D083D082D0F0D00C
:20012D00E0853B8222C0E0C0F0C082C083C0D0E5382434F8A681AE387F008E828F83A375D6
:20014D0008048F09120239AE82AF838E388538F005F0E53A8002C313D5F0FB30E0D8E5389B
:20016D002434F98781D0D0D083D082D0F0D0E022E53804FF8FF005F07F017E008006EF2F0C
:20018D00FFEE33FED5F0F7EFF4F582EEF4F583750804750900120239AE82AD3AEE5DF53AE7
:2001AD00E53914F539AE387F008E828F83A37508038F09120239AE82AF838E388538F00569
:1F01CD00F0E53A8002C313D5F0FB30E0D8E5382434F98781D0D0D083D082D0F0D0E022B7
:2001EC00E508450960467A01E50825E0F508E509334012F509E5829508E583950940030AE0
:20020C0080E6C3E50913F509E50813F508C3E5829508F5F0E58395094005F58385F082C384
:0D022C00E50913F509E50813F508DAE122EC
:20023900C2D5E58330E70DD2D5E4C39582F582E49583F583E50930E70BE4C39508F508E4FD
:160259009509F5091201EC30D50BE4C39582F582E49583F5832219
:00000001FF
