:0400000002012F3298
:03000B00020136B9
:0900110075334175273002000E21
:03000E000200FBF2
:20001A00E52460FC20E7F91524E52060FC20E7F91520D20010AF02C200E531243DF8A633F5
:20003A00E53104F531E53124FD5003753100E53304F533E53324A55003753341A20092AFF2
:20005A000520052280BAE52460FC20E7F91524E52060FC20E7F91520D20110AF02C201E590
:20007A0031243DF8A627E53104F531E53124FD5003753100E52704F527E52724C6500375B5
:20009A002730A20192AF0520052280BAC2AF438920758DFA759850D28ED299D2AFE522601C
:2000BA00FC20E7F91522E52060FC20E7F915203099FDD20210AF02C202E530243DF98799AF
:2000DA00E530243DF87620E53004F530E53024FD5003753000C299A20292AF052005248088
:2000FA00BC752001E4F521F522F523752403F525752801F529F529F52A753D20753E2075A2
:20011A003F20F530F53190001A1201669000601201660200A602013A222222220202E2320A
:20013A0075890075A882D28C7526007539007538009000FB120166858238E5382434F9877C
:20015A0081D0D0D083D082D0F0D0E02274FC252650047582FF22753B00753C00D20310AF11
:20017A0002C203753A0074FC253A4039853AF005F0E5398002C313D5F0FB20E021853AF0FD
:20019A0005F07401800225E0D5F0FB4239E52604F526E53AC454F0FF243FF53B8007E53A90
:2001BA0004F53A80C1C0E0C0F0C082C083C0D0E5382434F8A68185813C853B81C082C083B0
:2001DA007400C0E0C0F0C082C083E53AFFC40354F8F5D0C0D0E53A2434F8A681853C81E579
:2001FA00382434F98781D0D0D083D082D0F0D0E0A20392AF853A8222D20410AF02C204C039
:20021A00E0C0F0C082C083C0D0E5382434F8A681AE387F008E828F83A37508048F09120333
:20023A00B2AE82AF838E388538F005F0E5398002C313D5F0FB30E0D8E5382434F98781D0C4
:20025A00D0D083D082D0F0D0E0A20492AF22D20510AF02C205E53804FF8FF005F07F017EA5
:20027A00008006EF2FFFEE33FED5F0F7EFF4F582EEF4F5837508047509001203B2AE82AD8F
:20029A0039EE5DF539E52614F526AE387F008E828F83A37508048F091203B2AE82AF838E5E
:2002BA00388538F005F0E5398002C313D5F0FB30E0D8E5382434F98781D0D0D083D082D0A1
:2002DA00F0D0E0A20592AF22D20610AF02C206C0E0C0F0C082C083C0D0E5382434F8A68100
:2002FA0088F089828A83EBC0E0ECC0E0EDC0E0EEC0E0EFC0E0AE387F008E828F83A37508EC
:20031A00048F091203B2AE82AF838E388538F005F0E5398002C313D5F0FB30E0D8D0E0FFC9
:20033A00D0E0FED0E0FDD0E0FCD0E0FBD0E0AA83A982A8F0E5382434F98781D0D0D083D018
:0B035A0082D0F0D0E0A20692AF322269
:20036500E508450960467A01E50825E0F508E509334012F509E5829508E583950940030A65
:2003850080E6C3E50913F509E50813F508C3E5829508F5F0E58395094005F58385F082C30A
:0D03A500E50913F509E50813F508DAE12272
:2003B200C2D5E58330E70DD2D5E4C39582F582E49583F583E50930E70BE4C39508F508E483
:1603D2009509F50912036530D50BE4C39582F582E49583F5832224
:00000001FF
