:0400000002007E324A
:03000B000200856B
:0600110075334102000EF0
:03000E0002006F7E
:200017007401B5310280F9D20010AF02C200853330753101E53304F533E53324A550037522
:200037003341A20092AF80D8C2AF438920758DFA759850D28ED299D2AFE53160FC3099FDC0
:20005700D20110AF02C201853099753100753020C299A20192AF80E17531007530209000DE
:12007700171200B502003F0200892222222202023132DE
:2000890075890075A882D28C753900753A0075380090006F1200B5858238E5382434F98758
:2000A90081D0D0D083D082D0F0D0E02274FC253950047582FF22753C00753D00D20210AFAF
:2000C90002C202753B0074FC253B4039853BF005F0E53A8002C313D5F0FB20E021853BF0AB
:2000E90005F07401800225E0D5F0FB423AE53904F539E53BC454F0FF243FF53C8007E53B18
:2001090004F53B80C1C0E0C0F0C082C083C0D0E5382434F8A68185813D853C81C082C0835E
:200129007400C0E0C0F0C082C083E53BFFC40354F8F5D0C0D0E53B2434F8A681853D81E527
:20014900382434F98781D0D0D083D082D0F0D0E0A20292AF853B8222D20310AF02C203C0EC
:20016900E0C0F0C082C083C0D0E5382434F8A681AE387F008E828F83A37508048F091203E5
:2001890001AE82AF838E388538F005F0E53A8002C313D5F0FB30E0D8E5382434F98781D026
:2001A900D0D083D082D0F0D0E0A20392AF22D20410AF02C204E53804FF8FF005F07F017E5A
:2001C900008006EF2FFFEE33FED5F0F7EFF4F582EEF4F583750804750900120301AE82ADF2
:2001E9003AEE5DF53AE53914F539AE387F008E828F83A37508048F09120301AE82AF838E99
:20020900388538F005F0E53A8002C313D5F0FB30E0D8E5382434F98781D0D0D083D082D051
:20022900F0D0E0A20492AF22D20510AF02C205C0E0C0F0C082C083C0D0E5382434F8A681B4
:2002490088F089828A83EBC0E0ECC0E0EDC0E0EEC0E0EFC0E0AE387F008E828F83A375089D
:20026900048F09120301AE82AF838E388538F005F0E53A8002C313D5F0FB30E0D8D0E0FF2B
:20028900D0E0FED0E0FDD0E0FCD0E0FBD0E0AA83A982A8F0E5382434F98781D0D0D083D0CA
:0B02A90082D0F0D0E0A20592AF32221C
:2002B400E508450960467A01E50825E0F508E509334012F509E5829508E583950940030A17
:2002D40080E6C3E50913F509E50813F508C3E5829508F5F0E58395094005F58385F082C3BC
:0D02F400E50913F509E50813F508DAE12224
:20030100C2D5E58330E70DD2D5E4C39582F582E49583F583E50930E70BE4C39508F508E434
:160321009509F5091202B430D50BE4C39582F582E49583F5832287
:00000001FF
