:040000000200D732F1
:03000B000200DE12
:0600110075334102000EF0
:03000E000200B23B
:20001700E52460FC20E7F91524E52060FC20E7F91520D20010AF02C200E531243DF8A633F8
:20003700E53104F531E53124FD5003753100E53304F533E53324A55003753341A20092AFF5
:200057000520052280BAC2AF438920758DFA759850D28ED299D2AFE52260FC20E7F9152267
:20007700E52060FC20E7F915203099FDD20110AF02C201E530243DF98799E530243DF87643
:2000970020E53004F530E53024FD5003753000C299A20192AF0520052480BC752001E4F585
:2000B70021F522F523752403F525753D20753E20753F20F530F53190001712010E02005D38
:0B00D7000200E22222222202028A32F2
:2000E20075890075A882D28C7526007539007538009000B212010E858238E5382434F98776
:2001020081D0D0D083D082D0F0D0E02274FC252650047582FF22753B00753C00D20210AF6A
:2001220002C202753A0074FC253A4039853AF005F0E5398002C313D5F0FB20E021853AF056
:2001420005F07401800225E0D5F0FB4239E52604F526E53AC454F0FF243FF53B8007E53AE8
:2001620004F53A80C1C0E0C0F0C082C083C0D0E5382434F8A68185813C853B81C082C08308
:200182007400C0E0C0F0C082C083E53AFFC40354F8F5D0C0D0E53A2434F8A681853C81E5D1
:2001A200382434F98781D0D0D083D082D0F0D0E0A20292AF853A8222D20310AF02C203C094
:2001C200E0C0F0C082C083C0D0E5382434F8A681AE387F008E828F83A37508048F0912038C
:2001E2005AAE82AF838E388538F005F0E5398002C313D5F0FB30E0D8E5382434F98781D075
:20020200D0D083D082D0F0D0E0A20392AF22D20410AF02C204E53804FF8FF005F07F017E00
:20022200008006EF2FFFEE33FED5F0F7EFF4F582EEF4F58375080475090012035AAE82AD3F
:2002420039EE5DF539E52614F526AE387F008E828F83A37508048F0912035AAE82AF838E0E
:20026200388538F005F0E5398002C313D5F0FB30E0D8E5382434F98781D0D0D083D082D0F9
:20028200F0D0E0A20492AF22D20510AF02C205C0E0C0F0C082C083C0D0E5382434F8A6815B
:2002A20088F089828A83EBC0E0ECC0E0EDC0E0EEC0E0EFC0E0AE387F008E828F83A3750844
:2002C200048F0912035AAE82AF838E388538F005F0E5398002C313D5F0FB30E0D8D0E0FF7A
:2002E200D0E0FED0E0FDD0E0FCD0E0FBD0E0AA83A982A8F0E5382434F98781D0D0D083D071
:0B03020082D0F0D0E0A20592AF3222C2
:20030D00E508450960467A01E50825E0F508E509334012F509E5829508E583950940030ABD
:20032D0080E6C3E50913F509E50813F508C3E5829508F5F0E58395094005F58385F082C362
:0D034D00E50913F509E50813F508DAE122CA
:20035A00C2D5E58330E70DD2D5E4C39582F582E49583F583E50930E70BE4C39508F508E4DB
:16037A009509F50912030D30D50BE4C39582F582E49583F58322D4
:00000001FF
